:020000020000FC
:100000000FEF0DBF08E00DBF00E00AB90FEF07B911
:1000100000E008B90FEF04B900E005B910E029B11C
:1000200032950F70307F032B08B91217C1F30E946D
:10003000450029B1121799F3122F22FD0C942D00BF
:1000400023FD0C94330024FD0C94300025FD0C940A
:10005000360026FD0C943900E2CF03950C940F0076
:1000600033950C940F000A950C940F003A950C945C
:100070000F00402F4F70532F5295450F1DF045B97B
:100080000C940F004F7060E1462B2FEF2A95203023
:10009000E9F72FEF2A952030E9F72FEF2A95203046
:0400A000E9F70895DF
:00000001FF
